:060000000A128A11F22F22
:100AF000FB308316031387000C3083120313970017
:100B0000063092005E3083160313920008000A122A
:100B10008A118E260A128A110A128A1178250A125F
:100B20008A110A128A1197250A128A1108008E303A
:100B3000831603139F008130831203139F00143028
:100B4000F1007930F000F00BA32DF10BA32DA82DAF
:100B50000800F20083120313861572088800061439
:100B6000FE308605C330F100CD30F000F00BB62D1D
:100B7000F10BB62D0800F200F7308312031386053F
:100B8000720888000614FE308605C330F100CD30AF
:100B9000F000F00BC92DF10BC92D0800700871048D
:100BA0000319D32DD42D012E0130F400E02D013096
:100BB0000310F00DF10DFF3E031DD82D0130F40799
:100BC000F11FE32DE42DD72D71087302031DEA2DCB
:100BD00070087202031CED2DEE2DF42D7008F20248
:100BE0007108031CF303F30201300310F10CF00C45
:100BF000FF3E031DF52D0130F402031D002E012ED2
:100C0000E42D7308F1007208F0000800F401F5010A
:100C10007008710403190D2E0E2E432E0130F600BC
:100C20001A2E01300310F00DF10DFF3E031D122EA0
:100C30000130F607F11F1D2E1E2E112E013003105C
:100C4000F40DF50DFF3E031D1F2E71087302031DE9
:100C50002B2E70087202031C2E2E2F2E362E70089B
:100C6000F2027108031CF303F30274140130031041
:100C7000F10CF00CFF3E031D372E0130F602031D70
:100C8000422E432E1E2E7508F1007408F000080055
:100C90000030FC000030FB000030FA000030F900AA
:100CA000701C532E542E6B2E7408F907750803110F
:100CB0000318013E03195D2EFA0776080311031885
:100CC000013E0319642EFB07770803110318013E48
:100CD00003196B2EFC070130F8000310F40DF50D1D
:100CE000F60DF70DF80B6D2E01300310F30CF20C1E
:100CF000F10CF00CFF3E031D752E73087204710495
:100D00007004031D842E852E502E7C08F3007B0872
:100D1000F2007A08F1007908F00008008316031346
:100D200086018801831203138801860130300A127C
:100D30008A11BB250A128A11C330F400CD30F300AA
:100D4000F30BA02EF40BA02E30300A128A11BB2513
:100D50000A128A11C330F400CD30F300F30BAE2E2B
:100D6000F40BAE2E30300A128A11BB250A128A11FA
:100D7000C330F400CD30F300F30BBC2EF40BBC2ECB
:100D800038300A128A11BB250A128A11C330F400C6
:100D9000CD30F300F30BCA2EF40BCA2E06300A1224
:100DA0008A11BB250A128A11C330F400CD30F3003A
:100DB000F30BD82EF40BD82E0C300A128A11BB2557
:100DC0000A128A11C330F400CD30F300F30BE62E83
:100DD000F40BE62E01300A128A11BB250A128A1181
:100DE000C330F400CD30F300F30BF42EF40BF42EEB
:100DF0000800FC010A30F0000030F1007808F30030
:100E00007708F2000A128A11CE250A128A11700898
:100E1000303EFB000A30F0000030F1007808F300AB
:100E20007708F2000A128A1106260A128A1171083E
:100E3000F8007008F700770878040319202F212F95
:100E4000322F0A30F0000030F1007808F300770804
:100E5000F2000A128A11CE250A128A117008303E59
:100E6000FA00342F2030FA000A30F0000030F10090
:100E70007808F3007708F2000A128A1106260A128F
:100E80008A117108F8007008F700770878040319D0
:100E90004A2F4B2F5C2F0A30F0000030F100780809
:100EA000F3007708F2000A128A11CE250A128A117D
:100EB0007008303EF9005E2F2030F90079080A12E0
:100EC0008A11A9250A128A117A080A128A11A925FB
:100ED0000A128A117B080A128A11A9250A128A119C
:100EE00008000A128A1187250A128A118312031335
:100EF0001F151F197C2F7D2F792F1E08A800A9010F
:100F00002808A6002908A700831603131E088312C9
:100F10000313A800A9012808A4002908A500260891
:100F2000A900A80124082807A20025080318250AFB
:100F30002907A3002208F0002308F100F201F301C1
:100F40000030F7000030F6000130F5005230F400B8
:100F50000A128A1148260A128A1170088312031392
:100F6000A8007108A9007208AA007308AB000A3033
:100F70000310AB0CAA0CA90CA80CFF3E031DB82F44
:100F80002908A1002808A0002108A9002008A8001D
:100F90000310A90CA80C0310A90CA80C2808950094
:100FA00020080339A80004300310A80DFF3E031DDC
:100FB000D42F1708CF392804970080300A128A11DD
:100FC000BB250A128A11831203132108F800200896
:100FD000F7000A128A11F9260A128A11762F0A12CC
:100FE0008A11002883120313A001A101A201A30109
:100FF000A401A501A601A70183010A128A11712F7C
:02400E003B3F36
:00000001FF
